:020000040800F2
:1000000098080020A1010008831F0008031E0008B3
:10001000811F0008750D0008DD22000800000000A7
:10002000000000000000000000000000C5200008E3
:10003000770D000800000000971F0008C720000887
:10004000BB010008BB010008BB010008BB010008A0
:10005000BB010008BB010008BB010008BB01000890
:10006000BB010008BB010008BB010008BB01000880
:10007000BB010008BB010008BB010008BB01000870
:10008000BB010008BB010008BB010008BB01000860
:10009000BB010008BB010008BB010008BB01000850
:1000A000BB010008BB010008BB010008BB01000840
:1000B000BB010008BB0100082D210008BB0100089E
:1000C000BB010008BB010008BB010008BB01000820
:1000D000BB010008BB010008BB010008BB01000810
:1000E000BB010008BB010008BB01000800F002F8DA
:1000F00000F047F80AA090E8000C82448344AAF17B
:100100000107DA4501D100F03CF8AFF2090EBAE878
:100110000F0013F0010F18BFFB1A43F0010318473B
:10012000D8220000F8220000103A24BF78C878C115
:10013000FAD8520724BF30C830C144BF04680C60ED
:10014000704700000023002400250026103A28BF35
:1001500078C1FBD8520728BF30C148BF0B60704739
:10016000642900F07D80002070471FB59DE80300E2
:1001700000F070FB00F062F91FBD10B500F0C7F988
:1001800010BD00F02AFA1146FFF7EFFF02F0C6F8A3
:1001900000F02EFB03B4FFF7F0FF03BC00F0ECFC13
:1001A0000948804709480047FEE7FEE7FEE7FEE70B
:1001B000FEE7FEE7FEE7FEE7FEE7FEE70448054947
:1001C000054A064B7047000029210008ED00000891
:1001D000980200209808002098040020980400202D
:1001E0000FB4044910B503AA029800F0F9F810BC46
:1001F0005DF814FB8C0100202DE9F0410E46044609
:10020000002020622046E168884730B3252805D0C9
:10021000D4E901219047206A401CF2E7E1682046BA
:1002200000278847050018D0A5F14100192802D8F9
:1002300020354FF400673246294620462760FFF7F5
:100240008FFF40B1012804D0F61D26F007060836BE
:10025000D8E7361DD6E72846DAE7206ABDE8F08100
:100260002DE9F0410646002410687529314616A58F
:1002700010D0AFF30080002802DA404213A507E057
:1002800031688A0701D512A502E0490704D511A5F6
:10029000012401E0AFF3008000210A2206F12407C7
:1002A00009E0B0FBF2FCB0FBF2F302FB1C003030C3
:1002B00078541846491C0028F3D123462A46304674
:1002C000BDE8F04100F032B8000000002D00000051
:1002D0002B000000200000004FF0000200B5134684
:1002E00094469646203922BFA0E80C50A0E80C5056
:1002F000B1F12001BFF4F7AF090728BFA0E80C5007
:1003000048BF0CC05DF804EB890028BF40F8042BFF
:1003100008BF704748BF20F8022B11F0804F18BF6C
:1003200000F8012B70477047704770472DE9F04780
:100330000D4699469246044600F124080168880655
:1003400004D5E06921F01001216000E00120A842FD
:1003500001DD471B00E00027A1697A1902EB0900C3
:10036000081AA0612078C00602D42046AFF30080AE
:10037000002608E0D4E901211AF806009047206A17
:10038000401C761C20624E45F4DB2078C0060AD55E
:100390002046AFF3008006E0D4E9012130209047E9
:1003A000206A401C2062381EA7F10107F4DC07E038
:1003B000D4E9012118F805009047206A401C20620A
:1003C000281EA5F10105F3DC2046AFF3008020785C
:1003D000000602D50220BDE8F0870120FBE70000FF
:1003E000074B70B50D467B4400F011F804462846D3
:1003F00000F020F810B14FF0FF3070BD204670BD06
:10040000171F000001694A1C02610878704700B597
:100410008FB0CDE901310021059105497944CDE93D
:10042000031011466846FFF7E7FE0FB000BD00005D
:10043000E5FFFFFF007B00F08000704710B54248E9
:100440005421FFF749FF41485421FFF745FF404839
:100450005421FFF741FF3F493B483C4A3F4B08606E
:100460003D490A603A491960531C0365481C1065F0
:10047000012008653B48344A39A1784400F01CF952
:1004800020B9384878440A3800F0BBF937482F4A79
:1004900035A1784400F010F920B9344878440A387E
:1004A00000F0AFF932482A4A2FA1784400F004F94D
:1004B00020B92F4878440A3800F0A3F94023224895
:1004C000DC000021224600F0D4F820B12548784411
:1004D000543800F096F91D4822464023002100F0D0
:1004E000C8F820B121487844543800F08AF91848F7
:1004F00022461023002100F0BCF8002806D01C483A
:100500007844BDE81040563800F07BB910BD104863
:1005100070B5006D20F001040B4800F043F90B4862
:1005200000F040F90A4800F03DF909E0206D20F0A4
:100530000105204600F036F9204600F073F82C46FD
:10054000002CF3D170BD0000380100208C01002088
:10055000E0010020480000204C0000205000002056
:10056000720000006E1F0000770000005A1F00009C
:10057000461F00000EB5CDE9000100F0DDFA029043
:1005800069460120ABBE0EBD08B569460090022049
:10059000ABBE08BD1FB58DE8070069460520ABBEA0
:1005A00004B010BD1FB58DE80F0069460620ABBE34
:1005B000F6E708B5694600900920ABBE08BD1CB53A
:1005C000CDE9000169460A20ABBE1CBD704708B5E5
:1005D000694600900C20ABBE08BD754600F018F9C6
:1005E000AE4605006946534620F00700854618B020
:1005F00020B5FFF7E3FDBDE820404FF000064FF0C7
:1006000000074FF000084FF0000B21F00701AC4647
:10061000ACE8C009ACE8C009ACE8C009ACE8C00966
:100620008D46704770B50446051F00F0F7F8006866
:10063000002C14BF446870BD002C18BFAC423CBFF6
:1006400020466468F8D301680A18AA4218BF4560BA
:1006500003D12A6805461144016028684119A14266
:100660001CBF6C6070BD61686960216808442860C7
:1006700070BD70B5C468A50713D0650211D4B2F57A
:10068000807F09D0B2F5007F06D0B2F5806F08D127
:10069000012300F1240106E05D1E6FF07F46B542A4
:1006A00001D3012070BD0161C361416024F4706118
:1006B0001143C160002070BD2DE9F0410C46074692
:1006C0001646104600F06EF82078611C61280AD0AA
:1006D000722802D077283CD102E00125002405E0F1
:1006E0000225042402E0082448F2020511F8010B57
:1006F0002B2806D0622809D011F8010C74280AD0E2
:100700000BE045F0030544F00204EFE745F0040573
:1007100044F00104EAE744F0100438462146FFF7AC
:1007200029FF411C15D00021316171604FF4007127
:10073000F560F1617061200704D530460222002186
:1007400000F0E6F8306D40F0010030653046BDE85D
:10075000F0810020FBE72DE9F0410D460646104CE4
:10076000206DC10704D0410804D020F00104F7E750
:1007700022460EE0542000F09CF807000ED0206DB9
:1007800047F001010843542120653846FFF7A4FDD6
:100790003A4629463046BDE8F0418DE70020D6E7CD
:1007A000380100202DE9F04704464FF000094FF0D2
:1007B000FF37C568D4E90486A80707D0204600F0B3
:1007C00057F93046FFF7E0FE002802DA3846BDE868
:1007D000F087280502D54046FFF724FF4C2120462C
:1007E000FFF77AFD206D20F0010020654846EEE716
:1007F00010B50446AFF300802046BDE81040FFF777
:10080000C9BC10B500F07EF9BDE8104000F074B925
:1008100000487047340200207047000000487047CD
:100820003C020020704770477047704738B5044657
:100830000A4600206946AFF30080002808BF38BD93
:1008400002460099204600F0A4F9012038BD01209D
:1008500000F0F3B9F8B5AFF30080054600200C4670
:10086000102000BF0646A819A0420DD9324669469D
:100870000020AFF30080070008BF00F0DEF9009809
:10088000A04218BF0546C419FFF7C8FF0560074618
:10089000F01D20F007004619284600F073F9B44215
:1008A00008BFF8BDA21B31463868BDE8F84000F02B
:1008B00070B970B50646FFF7B1FF056806F10B0089
:1008C00020F00704B4429CBF002070BD2B466A682C
:1008D000BAB11068A04210D304F1080188423CBFAD
:1008E0005068586007D35168101941601168091B9E
:1008F000016058601460101D70BD13465268002AD4
:10090000E7D121462846FFF791FF0028DED170BDD0
:100910002DE9F041044616460D464769007B8007E5
:100920002ED03846FFF745FE50BB3EB3012E02D015
:10093000022E25D104E0204600F045F905441DE0D3
:100940003846FFF744FEE168002841F01001E160FD
:1009500005DA204600F058F80120BDE8F081C9030F
:100960000BD56268E16A914200D81146A269114430
:100970002269891A814200DD08460544002D01DA0A
:100980000220EAE7E16A6068E268814206D29103E8
:10099000E06203D522F4003141F01002A66900277D
:1009A000AE4213DCE16A814201D90B4600E0034606
:1009B00003EB060C2369ACEB030CAC4506DD81426E
:1009C00001D98C4600E084469C4505D1A76027608C
:1009D00042F02000A5620DE0AD1BE669AE1B81422E
:1009E000A66000D90846C01A281A2060581960600D
:1009F00022F0200003490840E060002084F848709D
:100A0000ABE70000BFCFD7FFC16821F4001141F070
:100A10008001C16000218160016070472DE9F047CD
:100A2000814614460E464FF0FF383248D568576964
:100A3000054209D03846A169FFF7C1FD002811DB46
:100A40002C48C0430540E5602B46324649463846AF
:100A5000FFF7A0FDA16920F00042B21A114400285E
:100A6000A16103D02046FFF7CFFF4046BDE8F087E5
:100A700070B504460569C06A6168884200D80846B6
:100A8000E16821F42011E160C90312D5A84208D021
:100A90002246411B2846FFF7C1FF10B14FF0FF303F
:100AA00070BD0020E562C4E90150E06820F48030A8
:100AB000E060002070BD10B50446C06820F0200042
:100AC000E060A16AA06988420DD02046FFF7D0FF00
:100AD000E06820F4405040F01000E060A06AA0619F
:100AE0002069E062606044F24001E0688843E060B1
:100AF00010BD000010000200002801D000F03CB83A
:100B00007047000010B5014602A000F07DF80120FA
:100B100010BD000053494752545245443A20526593
:100B20006469726563743A2063616E2774206F7024
:100B3000656E3A200000000010B5431C02E010F87A
:100B4000011B71B18107FAD14FF0013202C88C1A32
:100B50008C4314EAC211F9D0C01A0A0603D0C01E91
:100B600010BDC01A10BD0A0401D0801E10BD0902BC
:100B7000FCD0401E10BD000001491820ABBEFEE7AE
:100B80002600020000210160C0E90110704710201A
:100B90007047034640688C46002818BF88423CBF17
:100BA00003464068F8D318681844884207D00CF10F
:100BB000030020F00700001D411A521A0146081DCB
:100BC0000A60FFF72FBD10B50146C268900703D039
:100BD000900607D5886A0AE000F03EF8012101601E
:100BE000881E10BD8B69486818440B69C01A91F8BB
:100BF00048301BB191F84910401A10BD1103FCD5C3
:100C00000028FADD401E10BD70B505460C460A20CE
:100C100000E06D1C00F018F835B128780028F8D1F4
:100C200002E0641C00F010F814B120780028F8D11C
:100C3000BDE870400A2000F007B810B500F010F8C9
:100C4000BDE81040FFF758BF08B569468DF80000B1
:100C50000320ABBE08BD00000048704734020020EE
:100C600010B5012805D0002103A0FFF7CDFF01201A
:100C700010BD09A1F8E7000053494752544D454DB6
:100C80003A204F7574206F662068656170206D652D
:100C90006D6F7279000000003A2048656170206D28
:100CA000656D6F727920636F727275707465640020
:100CB00010B5002405221821204600F01FF800225C
:100CC0001921204600F01AF8641C022CF2D310BD42
:100CD00010B504460A46084601F054F908B942F432
:100CE000004242F48041204601F066F9002120468E
:100CF00001F062F9C0F30D0010BD00002DE9F041D4
:100D0000074615460E46C1F30D0001F03BF90128D8
:100D100001D146F40046164807EB470100EB810479
:100D200000222189606800F039F93146384601F027
:100D300043F921890122606800F030F9C5F30D0004
:100D400001F020F9012801D145F400452189002254
:100D5000606800F023F92946384601F02DF9054670
:100D600021890122606800F019F92846BDE8F08168
:100D700030000020FEE7704772B6FEE704480168C5
:100D8000486A044A00B2106000224A6270470000BC
:100D9000AC0000201C00002070B5044600F004F9EF
:100DA0000546601C02D004480078044400F0FCF8BA
:100DB000401BA042FAD370BD200000202DE9F84F5F
:100DC000DFF8B891002409F1040A0AF1040B234664
:100DD0000F270BF1040EC9E00125A5402A40AA42C5
:100DE0007DD1674ED1F804C0ACEB0608B44532D0D3
:100DF00014DCBCF1030F3AD009DCBCF1000F2AD09F
:100E0000BCF1010F1CD0BCF1020F31D11DE0BCF1CF
:100E1000110F17D0BCF1120F2AD119E0B8F5881FB5
:100E200019D006DCB8F5803F15D0B8F5801F1FD16A
:100E300011E0B8F5001F0ED0B8F5041F18D10AE074
:100E4000CB6815E0CB681B1D12E0CB6808330FE0C0
:100E5000CB680C330CE08B682BB1012B4FF00803EF
:100E600003D0456104E0042302E0056100E00023B3
:100E7000FF2A01D8064601E000F104064FEA840586
:100E800001D9A5F12005D6F8008007FA05FC28EA6B
:100E90000C0803FA05F548EA0508C6F800804D6815
:100EA000ED0062D5374DAE6946F00106AE61AD6921
:100EB00024F0030605F001050095334D06EB050C03
:100EC000DCF80850A607360F07FA06F825EA0805E9
:100ED000DFF8B880404503D14FF0000817E044E048
:100EE000DFF8AC80404502D14FF001080FE0DFF899
:100EF000A480404502D14FF0020808E0DFF8988056
:100F0000404502D14FF0030801E04FF0040808FA11
:100F100006F848EA0508CCF808804D68D9F8006062
:100F2000ED034D4601D5164300E096432E604D6813
:100F3000DAF80060AD03554601D5164300E096434C
:100F40002E604D68DBF80060ED025D4601D516436A
:100F500000E096432E604D68DEF80060AD027546F5
:100F600001D5164300E096432E60641C0D682A46A6
:100F7000E5407FF431AFBDE8F88F00000004014088
:100F80000000111000100240000001400008014064
:100F9000000C014000100140001401400AB1016141
:100FA00070470904FBE700000148806870470000B3
:100FB0002000002002488168027811448160704757
:100FC00020000020074810B5016841F010010160C1
:100FD000032000F075F80F2000F006F800F024F868
:100FE000002010BD0020024070B50D4D04464FF4A6
:100FF0007A712878B1FBF0F00A490968B1FBF0F08A
:1010000000F06FFC48B9102C07D200222146501E78
:1010100000F036F800206C6070BD012070BD00004B
:10102000200000202C0000200C4808B5816941F008
:1010300001018161816901F001010091C16941F003
:101040008051C161C06900F080500090044841683F
:1010500021F0E06141F00071416008BD00100240E4
:1010600000000140002809DB00F01F02012191402F
:101070004009800000F1E020C0F800117047000036
:10108000F0B40E4B1B680C46C3F30223C3F10705F3
:10109000042D00D90425191D072901D2002300E0E1
:1010A000DB1E012606FA05F1491E214099409E40AB
:1010B000761E16403143F0BC01F011B90CED00E092
:1010C000064900F0070208684FF6FF03184040EA9F
:1010D0000220034A10430860704700000CED00E056
:1010E0000000FA052DE9F0470F46050061D0434E98
:1010F000306800F00700B84209D2306820F00700DD
:1011000038433060306800F00700B84251D1286899
:101110003B4C810712D5400703D5606840F4E0607E
:1011200060602878000703D5606840F46050606014
:101130006068A96820F0F000084360602878C00764
:1011400028D06868012810D02168022810D08907AB
:1011500000292EDA616821F0030101436160FFF785
:1011600023FF804641F288390DE021688903EFE7CB
:101170008901EDE7FFF718FFA0EB0801494502D907
:101180000320BDE8F0876068696800F00C00B0EBF0
:10119000810FEFD1306800F00700B8420BD93068FA
:1011A00020F0070038433060306800F00700B84294
:1011B00001D00120E5E72878400705D56068E96897
:1011C00020F4E060084360602878000706D5606876
:1011D000296920F4605040EAC100606000F038F8EE
:1011E0006168084AC1F30311515CC84006490860B0
:1011F00006480068FFF7F8FE0020C2E70020024022
:1012000000100240D42300082C00002024000020FD
:101210000448054900684968044AC1F30221515C49
:10122000C84070472C00002000100240E423000852
:101230000448054900684968044AC1F3C221515C69
:10124000C84070472C00002000100240E423000832
:1012500012A185B00FC98DE80F0014A0144A0068D0
:1012600004905168134801F00C03042B10D0082B94
:101270000ED1C1F38343C9031DF803000AD5516899
:1012800004AAC1F34041515C0A4A5043B0FBF1F05B
:1012900005B0704708494843FAE700000203040517
:1012A000060708090A0B0C0D0E0F101001020000B2
:1012B0000010024000127A0000093D002DE9F84FAD
:1012C000040070D02078C04DC00749D06868C0F3D2
:1012D0008100012807D06868C0F38100022809D185
:1012E0006868C00306D52868800339D5606800287F
:1012F000E7D035E06068B0F5803F0BD010B1B0F5B5
:10130000A02F11D0286820F480302860286820F4AD
:10131000802002E0286840F480302860606890B146
:10132000FFF742FE06460AE0286840F48020286065
:10133000F0E700BFFFF738FE801B642873D82868E9
:101340008003F7D50CE0FFF72FFE064605E000BF4F
:10135000FFF72AFE801B6428F0D828688003F7D4A2
:1013600020789A4E80074FF001094FF0000839D5D8
:10137000686810F00C0F07D06868C0F3810002287D
:1013800009D16868C00306D42868800714D520698D
:10139000012808D110E02069B0B1C6F80090FFF72D
:1013A00003FE074605E00AE1FFF7FEFDC01B022829
:1013B000C4D828688007F7D52868616920F0F8004C
:1013C00040EAC10028600DE0C6F80080FFF7ECFDA0
:1013D000074604E0FFF7E8FDC01B022823D8286871
:1013E0008007F7D4207800072CD57948A169D9B1B6
:1013F000C0F80090FFF7D8FD074604E0FFF7D4FDE2
:10140000C01B02280FD8686A8007F7D571484FF4CF
:10141000FA510068B0FBF1F0009000BF0098411E47
:101420000091FAD20EE080E0C0F80080FFF7BCFD2A
:10143000074604E0FFF7B8FDC01B022875D8686AAC
:101440008007F7D42078400760D5E8690027C000FE
:1014500008D4E86940F08050E861E869012700F0AD
:10146000805000905C480168C90513D40168834628
:1014700041F480710160FFF797FD824606E000BFEE
:10148000FFF792FDA0EB0A0064284ED8DBF80000BD
:10149000C005F5D5E06801280AD008B1052813D0A9
:1014A000286A20F001002862286A20F0040002E087
:1014B000286A40F001002862E06841F2883B98B158
:1014C000FFF772FD82460BE0286A40F004002862B4
:1014D000EEE700BFFFF768FDA0EB0A0159455AD8B7
:1014E000286A8007F6D50CE0FFF75EFD824605E02E
:1014F000FFF75AFDA0EB0A0159454CD8286A80072E
:10150000F6D41FB1E86920F08050E861E06988B343
:101510006968C1F38101022944D00228C6F86080BD
:1015200004D0FFF741FD044638E034E0FFF73CFD0E
:10153000074604E0FFF738FDC01B02282BD82868B7
:101540008001F7D4206AB0F5803F05D16868A168B2
:1015500020F4003008436860D4E908010843696852
:1015600021F4741108436860C6F86090FFF71CFD11
:10157000044606E025E000BFFFF716FD001B022829
:1015800009D828688001F7D51BE000BFFFF70CFDE4
:10159000001B022802D90320BDE8F88F28688001CB
:1015A000F4D40EE00128F7D06868226A00F4803194
:1015B000914204D1616A00F47010884201D0012088
:1015C000EAE70020E8E70000001002400000424285
:1015D000800442422C0000200070004070B50400DE
:1015E00009D0606A002540B125616561A56294F863
:1015F000510040B10CE0012070BD6068B0F5827F01
:10160000F4D0E561F2E784F85050204600F040F84D
:10161000022084F851002068016821F04001016037
:10162000A088218900F4827001F404410843A18953
:1016300001F400610843217C01F002010843217D8F
:1016400001F001010843218B01F400710843217F5F
:1016500001F03801084394F8201001F0800108439C
:10166000218D01F40051084321680860A06904211C
:1016700001EA1040216848602068C16921F40061D6
:10168000C1616565012084F85100002070BD000033
:1016900030B585B00024009401940294039400684E
:1016A0001449884223D11448816941F480518161F1
:1016B000816901F480510491816941F004018161E3
:1016C00080690E4D00F004000490A02000900220DC
:1016D00001900320039069462846FFF76FFB4020E6
:1016E000CDE90004694628460294FFF767FB05B080
:1016F00030BD0000003001400010024000080140F1
:101700002DE9F84F044690F8500000270A9E1D4628
:1017100092468B464FF0010901280ED0012084F833
:101720005000FFF741FC804694F8510061680128A1
:101730000CD0B1F5827F07D102E00220BDE8F88F1E
:10174000A16809B9042801D00227C2E0BBF1000F4B
:1017500027D0BAF1000F24D01DB394F8510004280B
:1017600002D0052084F8510000206065C4F838A03C
:10177000E587A587C4F830B0E586A5862064606457
:1017800020680168490603D4016841F04001016006
:10179000E068B0F5006F606805D0E8B3012D46D071
:1017A0007FE0012795E008B1012D39D1206B216838
:1017B0000088C860206B801C2063E08E401EE0869D
:1017C0002EE02068816889070FD5E18E69B1B9F1F3
:1017D000010F0AD1216B0988C160206B801C206336
:1017E000E08E401EE0864FF0000920688168C9073E
:1017F0000CD0E18F51B1C068A16B0880A06B801C38
:10180000A063E08F401EE0874FF00109FFF7CCFB9B
:10181000A0EB0800B04200E009E001D3701C50D1F9
:10182000E08E0028CDD1E08F0028CAD13FE0206BA8
:10183000216800780873206B401C2063E08E401EF6
:10184000E0862EE02068816889070FD5E18E69B1B6
:10185000B9F1010F0AD1216B09780173206B401C8B
:101860002063E08E401EE0864FF00009206881680A
:10187000C9070CD0E18F51B1C068A16B0870A06B93
:10188000401CA063E08F401EE0874FF00109FFF786
:101890008BFBA0EB0800B04202D3701C01D010E01B
:1018A0007EB1E08E0028CDD1E08F0028CAD142461B
:1018B0003146204600F070FB28B1012720206065EA
:1018C00007E0032705E0A06818B92068C1688068B0
:1018D0000090012084F85100002084F85000384620
:1018E0002CE710B5401EB0F1807F01D3012010BD60
:1018F0004FF0E02460610F21601700F0F0FC002041
:10190000A06107202061002010BD704770470000D3
:1019100070B590F83C20012A26D0012480F83C4084
:10192000022280F83D2003685A689D6822F0700604
:101930000A6832435A600D4B02689A4208D0B2F1ED
:10194000804F05D00A4B9A4202D00A4B9A4204D1EA
:10195000496825F080031943916080F83D400021DB
:1019600080F83C10084670BD022070BD002C01407C
:1019700000040040000800402DE9F0410D4604003D
:1019800003D094F83D0018B108E00120BDE8F081D3
:10199000002084F83C00204600F040F8022084F843
:1019A0003D002068816844F2070291438160211D57
:1019B000206800F0C1FB226890689169166A2B6864
:1019C000AF69034340F20330814341EA0721A8682D
:1019D000EF6908434FF6FC418843E96840EA072075
:1019E000014328692F6A000140EA0730084369680B
:1019F0006D6926F0220646EA0515294393602268A0
:101A0000906154F8460B0162012004F81F09E0754B
:101A10002076E0762077A0750020B7E700B585B086
:101A200000210091019102910391006811498842BF
:101A30001ED11148C16941F00401C161C16901F0C1
:101A400004010491816941F008018161806969465E
:101A500000F008000490C02000900848FFF7AEF99D
:101A6000002211461E20FFF70BFB1E20FFF7FAFA9B
:101A700005B000BD0008004000100240000C01400D
:101A800070B590F83E60044690F83F5090F84230B0
:101A900090F84320022021B104290ED0012E1BD141
:101AA00014E0012E18D1012B16D184F83E0084F8E1
:101AB000420001220021206820E0012D0CD1012AE2
:101AC0000AD184F83F0084F8430014E0012D03D1CB
:101AD000012B01D1012A01D0012070BD84F83E0004
:101AE00084F83F0084F8420084F84300012200217A
:101AF000206800F057FB01220421206800F052FB0F
:101B00002068016841F001010160002070BD70474C
:101B100070B50446006801694FF00005C9438907A4
:101B200015D4C168C943890711D4E91E0161012098
:101B30002077206880698007204602D0FFF7E7FF02
:101B400004E000F098F8204600F096F82577206829
:101B50000169C943490717D4C168C943490713D468
:101B60006FF004010161022020772068806910F481
:101B7000407F204602D0FFF7CAFF04E000F07BF868
:101B8000204600F079F8257720680169C9430907E4
:101B900016D4C168C943090712D46FF00801016166
:101BA000042020772068C0698007204602D0FFF714
:101BB000AEFF04E000F05FF8204600F05DF8257706
:101BC00020680169C943C90617D4C168C943C90659
:101BD00013D46FF010010161082020772068C069DC
:101BE00010F4407F204602D0FFF791FF04E000F0A0
:101BF00042F8204600F040F8257720680169C94383
:101C0000C90708D1C168C943C90704D1891E016148
:101C1000204600F032F820680169C943090609D45A
:101C2000C168C943090605D46FF0800101612046EF
:101C3000FFF76BFE20680169C943490609D4C168F2
:101C4000C943490605D46FF040010161204600F008
:101C500015F820680169C94389060BD4C168C943D6
:101C6000890607D46FF0200101612046BDE870406D
:101C7000FFF74CBE70BD704770477047704770B536
:101C8000040004D094F83D00002510B106E00120C6
:101C900070BD84F83C50204600F022F8242084F8DF
:101CA0003D002068C16821F40051C160204600F069
:101CB00087FA2068016921F4904101612068416937
:101CC00021F02A0141612068C16841F40051C160DE
:101CD0002564202084F83D0084F83E00002070BD7B
:101CE00030B585B0002400940194029403940068F8
:101CF0001449884224D11448816941F480418161AA
:101D0000816901F480410491816941F0040181619C
:101D100080690E4D00F0040004904FF400700090B4
:101D2000022001900320039069462846FFF746F8F9
:101D30002815CDE90004694628460294FFF73EF8CD
:101D400005B030BD003801400010024000080140DD
:101D50002DE9F843044690F83D001F4616460D460F
:101D600020284CD1C5B1BEB194F83C00012846D022
:101D7000012084F83C004FF00008C4F84080212086
:101D800084F83D00FFF710F9A6848146E684A06838
:101D9000B0F5805F03D004E00120BDE8F88320693E
:101DA00028B12E465FF0000584F83C800EE0002646
:101DB000FAE78021204600F05FFAA0B9AEB116F82C
:101DC000010B21684860E08C401EE084E08C4B46AB
:101DD0004FF0000200970028EBD14FF04001204661
:101DE00000F04AFA30B10320D7E735F8020BC0F310
:101DF0000800E6E7202084F83D000020CDE702201F
:101E0000CBE7FEE730B585B000241E48009401946E
:101E100002940394816941F020018161816901F09C
:101E200020010491816941F004018161816901F01F
:101E300004010491816941F0080181618069124DBA
:101E400000F008000490002208212846FFF7A6F8B9
:101E5000012210212846FFF7A1F818200090012048
:101E6000CDE901040220039069462846FEF7A6FF4B
:101E70002020CDE90004694604480294FEF79EFF45
:101E800005B030BD0010024000080140000C0140C8
:101E9000114810B50F4901604FF482714160002173
:101EA0004FF40062C0E902120122C0E9041252029A
:101EB00082610822C0E90721416281620A21C16270
:101EC000FFF78CFB002803D0BDE81040FEF754BF9D
:101ED00010BD0000003001405400002010B58CB04F
:101EE00024216846FEF7F8F900241648099414499D
:101EF0000A94C0E9001440F69F71C0E902410461F0
:101F000084610320CDE900040120CDE9020404949A
:101F1000CDE90540079469460A480894FFF72CFD6F
:101F200008B1FEF729FF099409A906480A94FFF7AA
:101F3000EFFC002801D0FEF71FFF0CB010BD000021
:101F400000080040AC0000200C4810B50A490160B0
:101F50004FF4E1314160002181600C22C160C0E991
:101F600004128161C161FFF78AFE002803D0BDE839
:101F70001040FEF701BF10BD00380140F400002002
:101F8000FEE7FEE7002101E0414040080028FBD1C8
:101F900001F001007047704738B50B4600920446C7
:101FA0000022802100F032F8002804D0606D40F05B
:101FB00020006065032038BD73B582B0002802DAC6
:101FC000022800D9FEE7104D00EB400605EB860421
:101FD000002221896068FEF7E1FF6420009055F837
:101FE0002600012301AA03A9FFF78AFB10B10020F4
:101FF000ADF80400218901226068FEF7CFFFBDF82B
:10200000040004B070BD0000300000202DE9F8434A
:102010001E46914688460446089DFEF7C5FF401BB4
:10202000351AFEF7C1FF074625480068C0F3CB30DC
:10203000684338E0701C37D0FEF7B6FFC01BA842DB
:1020400003D215B1009860B32CE02068416821F0FC
:10205000E00141606068B0F5827F0BD1A068B0F507
:10206000004F02D0B0F5806F04D12068016821F0E4
:1020700040010160A06AB0F5005F09D120680168E5
:1020800021F4005101602068016841F400510160B1
:10209000012084F85100002084F850000320BDE89E
:1020A000F8830025401E00902068816838EA01000E
:1020B00004D000214945BDD10020F0E70121F9E716
:1020C0002C0000207047FEF775BF30B58FB0282177
:1020D0006846FEF701F914210AA8FEF7FDF8012170
:1020E0000804CDE900100024029402250491CDE9F2
:1020F00007504FF4E01009906846FFF7DFF808B189
:1021000072B6FEE70F20CDE90A054FF48060CDE9F5
:102110000C4002210AA80E94FEF7E4FF002801D02B
:1021200072B6FEE70FB030BD704700000148FFF700
:10213000EFBC0000AC000020F0B50268164B174C55
:10214000174D4FF08047984205D0B84203D0A042C7
:1021500001D0A84203D122F070064A683243984267
:1021600005D0B84203D0A04201D0A84203D122F446
:102170004074CA6822434C6922F080022243026004
:102180008A68C2620A688262984201D10969016361
:1021900001214161F0BD0000002C0140000400401D
:1021A0000008004010B501F01F030121046A9940A6
:1021B0008C430462016A9A401143016210BD000021
:1021C00070B5044600680169E26821F4405111438A
:1021D00001612169A0680843616908432168CA68F0
:1021E00041F20C639A430243CA6020684169A269C4
:1021F00021F44071114341611E492068884202D197
:10220000FFF716F801E0FFF703F800EBC00101EB60
:102210000012606864218000B2FBF0F3B3FBF1F3BD
:102220006FF018067343B2FBF0F5B2FBF0F605EB66
:102230008305322303EB0515B5FBF1F5B6FBF1F68B
:1022400005F0F00505EB0615B2FBF0F6B2FBF0F079
:10225000B0FBF1F06FF01802504306EB800003EB87
:102260000010B0FBF1F0216800F00F0028448860F6
:1022700070BD0000003801402DE9F0419846174636
:102280000E460446069D1DE0681C1BD02DB1FEF7CE
:102290008BFEA0EB0800A84214D92068C16821F485
:1022A000D071C1602068416921F0010141612020A5
:1022B00084F83D0084F83E00002084F83C000320B0
:1022C000BDE8F0812068006836EA000004D00020F4
:1022D000B842D9D00020F3E70120F9E7FEE709076B
:1022E000090E002804DB00F1E02080F8001470479C
:1022F00000F00F0000F1E02080F8141D704700008E
:1023000038B504468DF800000223012269460248D0
:10231000FFF71EFD204638BDF4000020FEF752FEF8
:10232000FFF7D3FEFFF76EFDFFF7B2FDFFF70CFEE0
:10233000FFF7D4FDFEF7BCFC3C212048FFF7A0FBD3
:102340001F4D1E4F43F6FE7A2E1D43F6FF7B4FF0C6
:10235000610805F114044FF067093868416AA96003
:102360000068C0F30010E860FEF708FD0146286130
:1023700014A0FDF735FF51460020FEF7A9FC308080
:1023800059460120FEF7A4FC708084F80080318853
:102390006170090AA170E070000A207184F805904C
:1023A0002868401C28600120FEF7F6FC04496423DD
:1023B000062214310648FFF7CBFCCEE7AC00002024
:1023C0000000002053706565643A2025640D0A0002
:1023D000F4000020000000000000000001020304DF
:1023E0000607080900000000010203043A747400A3
:1023F0003A7474003A747400182400080000002035
:1024000054000000280100086C240008540000203B
:102410004408000044010008000000000000000023
:1024200000000000000000000000000000000000AC
:10243000000000000000000001000000100000008B
:10244000000000000024F4005400002000080140B7
:1024500010000000540000200008014008000000A7
:0C24600000000000000000000000000070
:04000005080000ED02
:00000001FF
